{
  "_format": "hh-sol-artifact-1",
  "contractName": "WavePortal",
  "sourceName": "contracts/wavePortal.sol",
  "abi": [
    {
      "inputs": [],
      "stateMutability": "payable",
      "type": "constructor"
    },
    {
      "anonymous": false,
      "inputs": [
        {
          "indexed": true,
          "internalType": "address",
          "name": "waver",
          "type": "address"
        },
        {
          "indexed": false,
          "internalType": "string",
          "name": "message",
          "type": "string"
        },
        {
          "indexed": false,
          "internalType": "uint256",
          "name": "timestamp",
          "type": "uint256"
        }
      ],
      "name": "newWave",
      "type": "event"
    },
    {
      "inputs": [],
      "name": "getAllWaves",
      "outputs": [
        {
          "components": [
            {
              "internalType": "address",
              "name": "waver",
              "type": "address"
            },
            {
              "internalType": "string",
              "name": "message",
              "type": "string"
            },
            {
              "internalType": "uint256",
              "name": "timestamp",
              "type": "uint256"
            }
          ],
          "internalType": "struct WavePortal.Wave[]",
          "name": "",
          "type": "tuple[]"
        }
      ],
      "stateMutability": "view",
      "type": "function"
    },
    {
      "inputs": [],
      "name": "getTotalWaves",
      "outputs": [
        {
          "internalType": "uint256",
          "name": "",
          "type": "uint256"
        }
      ],
      "stateMutability": "view",
      "type": "function"
    },
    {
      "inputs": [
        {
          "internalType": "string",
          "name": "_message",
          "type": "string"
        }
      ],
      "name": "wave",
      "outputs": [],
      "stateMutability": "nonpayable",
      "type": "function"
    },
    {
      "inputs": [
        {
          "internalType": "address",
          "name": "",
          "type": "address"
        }
      ],
      "name": "wavedAt",
      "outputs": [
        {
          "internalType": "uint256",
          "name": "",
          "type": "uint256"
        }
      ],
      "stateMutability": "view",
      "type": "function"
    }
  ],
  "bytecode": "0x608060405262000033604051806060016040528060258152602001620012c5602591396200004d60201b620006021760201c565b44426200004191906200019a565b60018190555062000277565b620000ed816040516024016200006491906200015a565b6040516020818303038152906040527f41304fac000000000000000000000000000000000000000000000000000000007bffffffffffffffffffffffffffffffffffffffffffffffffffffffff19166020820180517bffffffffffffffffffffffffffffffffffffffffffffffffffffffff8381831617835250505050620000f060201b60201c565b50565b60008151905060006a636f6e736f6c652e6c6f679050602083016000808483855afa5050505050565b600062000126826200017e565b62000132818562000189565b93506200014481856020860162000201565b6200014f8162000266565b840191505092915050565b6000602082019050818103600083015262000176818462000119565b905092915050565b600081519050919050565b600082825260208201905092915050565b6000620001a782620001f7565b9150620001b483620001f7565b9250827fffffffffffffffffffffffffffffffffffffffffffffffffffffffffffffffff03821115620001ec57620001eb62000237565b5b828201905092915050565b6000819050919050565b60005b838110156200022157808201518184015260208101905062000204565b8381111562000231576000848401525b50505050565b7f4e487b7100000000000000000000000000000000000000000000000000000000600052601160045260246000fd5b6000601f19601f8301169050919050565b61103e80620002876000396000f3fe608060405234801561001057600080fd5b506004361061004c5760003560e01c8063449d46c0146100515780639a2cdc081461006d578063bc8244351461008b578063bd43a908146100bb575b600080fd5b61006b60048036038101906100669190610945565b6100d9565b005b61007561044e565b6040516100829190610d00565b60405180910390f35b6100a560048036038101906100a0919061091c565b610499565b6040516100b29190610d00565b60405180910390f35b6100c36104b1565b6040516100d09190610bfc565b60405180910390f35b426005600260003373ffffffffffffffffffffffffffffffffffffffff1673ffffffffffffffffffffffffffffffffffffffff168152602001908152602001600020546101269190610ded565b10610166576040517f08c379a000000000000000000000000000000000000000000000000000000000815260040161015d90610cc0565b60405180910390fd5b60016000808282546101789190610ded565b925050819055506101be6040518060400160405280600d81526020017f25732068617320776176656421000000000000000000000000000000000000008152503361069b565b600360405180606001604052803373ffffffffffffffffffffffffffffffffffffffff16815260200183815260200142815250908060018154018082558091505060019003906000526020600020906003020160009091909190915060008201518160000160006101000a81548173ffffffffffffffffffffffffffffffffffffffff021916908373ffffffffffffffffffffffffffffffffffffffff160217905550602082015181600101908051906020019061027d9291906107fc565b506040820151816002015550506064600154444261029b9190610ded565b6102a59190610ded565b6102af9190610ef3565b6001819055506032600154116103fb576102fe6040518060400160405280600781526020017f257320776f6e21000000000000000000000000000000000000000000000000008152503361069b565b6000655af3107a400090504781111561034c576040517f08c379a000000000000000000000000000000000000000000000000000000000815260040161034390610ca0565b60405180910390fd5b60003373ffffffffffffffffffffffffffffffffffffffff168260405161037290610be7565b60006040518083038185875af1925050503d80600081146103af576040519150601f19603f3d011682016040523d82523d6000602084013e6103b4565b606091505b50509050806103f8576040517f08c379a00000000000000000000000000000000000000000000000000000000081526004016103ef90610ce0565b60405180910390fd5b50505b3373ffffffffffffffffffffffffffffffffffffffff167fda01269cce08d780a2a4aa49d71774e3b7f47846c090e2cafaf1a70ea39959a08242604051610443929190610c70565b60405180910390a250565b60006104916040518060400160405280601781526020017f5765206861766520256420746f74616c20776176657321000000000000000000815250600054610737565b600054905090565b60026020528060005260406000206000915090505481565b60606003805480602002602001604051908101604052809291908181526020016000905b828210156105f957838290600052602060002090600302016040518060600160405290816000820160009054906101000a900473ffffffffffffffffffffffffffffffffffffffff1673ffffffffffffffffffffffffffffffffffffffff1673ffffffffffffffffffffffffffffffffffffffff16815260200160018201805461055e90610ec1565b80601f016020809104026020016040519081016040528092919081815260200182805461058a90610ec1565b80156105d75780601f106105ac576101008083540402835291602001916105d7565b820191906000526020600020905b8154815290600101906020018083116105ba57829003601f168201915b50505050508152602001600282015481525050815260200190600101906104d5565b50505050905090565b610698816040516024016106169190610c1e565b6040516020818303038152906040527f41304fac000000000000000000000000000000000000000000000000000000007bffffffffffffffffffffffffffffffffffffffffffffffffffffffff19166020820180517bffffffffffffffffffffffffffffffffffffffffffffffffffffffff83818316178352505050506107d3565b50565b61073382826040516024016106b1929190610c40565b6040516020818303038152906040527f319af333000000000000000000000000000000000000000000000000000000007bffffffffffffffffffffffffffffffffffffffffffffffffffffffff19166020820180517bffffffffffffffffffffffffffffffffffffffffffffffffffffffff83818316178352505050506107d3565b5050565b6107cf828260405160240161074d929190610c70565b6040516020818303038152906040527f9710a9d0000000000000000000000000000000000000000000000000000000007bffffffffffffffffffffffffffffffffffffffffffffffffffffffff19166020820180517bffffffffffffffffffffffffffffffffffffffffffffffffffffffff83818316178352505050506107d3565b5050565b60008151905060006a636f6e736f6c652e6c6f679050602083016000808483855afa5050505050565b82805461080890610ec1565b90600052602060002090601f01602090048101928261082a5760008555610871565b82601f1061084357805160ff1916838001178555610871565b82800160010185558215610871579182015b82811115610870578251825591602001919060010190610855565b5b50905061087e9190610882565b5090565b5b8082111561089b576000816000905550600101610883565b5090565b60006108b26108ad84610d4c565b610d1b565b9050828152602081018484840111156108ca57600080fd5b6108d5848285610e7f565b509392505050565b6000813590506108ec81610ff1565b92915050565b600082601f83011261090357600080fd5b813561091384826020860161089f565b91505092915050565b60006020828403121561092e57600080fd5b600061093c848285016108dd565b91505092915050565b60006020828403121561095757600080fd5b600082013567ffffffffffffffff81111561097157600080fd5b61097d848285016108f2565b91505092915050565b60006109928383610b79565b905092915050565b6109a381610e43565b82525050565b6109b281610e43565b82525050565b60006109c382610d8c565b6109cd8185610daf565b9350836020820285016109df85610d7c565b8060005b85811015610a1b57848403895281516109fc8582610986565b9450610a0783610da2565b925060208a019950506001810190506109e3565b50829750879550505050505092915050565b6000610a3882610d97565b610a428185610dcb565b9350610a52818560208601610e8e565b610a5b81610fe0565b840191505092915050565b6000610a7182610d97565b610a7b8185610ddc565b9350610a8b818560208601610e8e565b610a9481610fe0565b840191505092915050565b6000610aac601a83610ddc565b91507f696e73756666696369656e7420616d6f756e74206f66206574680000000000006000830152602082019050919050565b6000610aec601083610ddc565b91507f706c6561736520617761697420357321000000000000000000000000000000006000830152602082019050919050565b6000610b2c600083610dc0565b9150600082019050919050565b6000610b46600e83610ddc565b91507f7769746864726177206572726f720000000000000000000000000000000000006000830152602082019050919050565b6000606083016000830151610b91600086018261099a565b5060208301518482036020860152610ba98282610a2d565b9150506040830151610bbe6040860182610bc9565b508091505092915050565b610bd281610e75565b82525050565b610be181610e75565b82525050565b6000610bf282610b1f565b9150819050919050565b60006020820190508181036000830152610c1681846109b8565b905092915050565b60006020820190508181036000830152610c388184610a66565b905092915050565b60006040820190508181036000830152610c5a8185610a66565b9050610c6960208301846109a9565b9392505050565b60006040820190508181036000830152610c8a8185610a66565b9050610c996020830184610bd8565b9392505050565b60006020820190508181036000830152610cb981610a9f565b9050919050565b60006020820190508181036000830152610cd981610adf565b9050919050565b60006020820190508181036000830152610cf981610b39565b9050919050565b6000602082019050610d156000830184610bd8565b92915050565b6000604051905081810181811067ffffffffffffffff82111715610d4257610d41610fb1565b5b8060405250919050565b600067ffffffffffffffff821115610d6757610d66610fb1565b5b601f19601f8301169050602081019050919050565b6000819050602082019050919050565b600081519050919050565b600081519050919050565b6000602082019050919050565b600082825260208201905092915050565b600081905092915050565b600082825260208201905092915050565b600082825260208201905092915050565b6000610df882610e75565b9150610e0383610e75565b9250827fffffffffffffffffffffffffffffffffffffffffffffffffffffffffffffffff03821115610e3857610e37610f24565b5b828201905092915050565b6000610e4e82610e55565b9050919050565b600073ffffffffffffffffffffffffffffffffffffffff82169050919050565b6000819050919050565b82818337600083830152505050565b60005b83811015610eac578082015181840152602081019050610e91565b83811115610ebb576000848401525b50505050565b60006002820490506001821680610ed957607f821691505b60208210811415610eed57610eec610f82565b5b50919050565b6000610efe82610e75565b9150610f0983610e75565b925082610f1957610f18610f53565b5b828206905092915050565b7f4e487b7100000000000000000000000000000000000000000000000000000000600052601160045260246000fd5b7f4e487b7100000000000000000000000000000000000000000000000000000000600052601260045260246000fd5b7f4e487b7100000000000000000000000000000000000000000000000000000000600052602260045260246000fd5b7f4e487b7100000000000000000000000000000000000000000000000000000000600052604160045260246000fd5b6000601f19601f8301169050919050565b610ffa81610e43565b811461100557600080fd5b5056fea264697066735822122026c757b308a573501b939f51615c3f1b2c7c527a07398bf8f3f8e11365d9ec1a64736f6c63430008000033596f20796f2c204920616d206120636f6e747261637420616e64204920616d20736d617274",
  "linkReferences": {},
  "deployedLinkReferences": {}
}